{
  "contractName": "StarNotary",
  "abi": [
    {
      "inputs": [],
      "stateMutability": "nonpayable",
      "type": "constructor"
    },
    {
      "anonymous": false,
      "inputs": [
        {
          "indexed": true,
          "internalType": "address",
          "name": "owner",
          "type": "address"
        },
        {
          "indexed": true,
          "internalType": "address",
          "name": "approved",
          "type": "address"
        },
        {
          "indexed": true,
          "internalType": "uint256",
          "name": "tokenId",
          "type": "uint256"
        }
      ],
      "name": "Approval",
      "type": "event"
    },
    {
      "anonymous": false,
      "inputs": [
        {
          "indexed": true,
          "internalType": "address",
          "name": "owner",
          "type": "address"
        },
        {
          "indexed": true,
          "internalType": "address",
          "name": "operator",
          "type": "address"
        },
        {
          "indexed": false,
          "internalType": "bool",
          "name": "approved",
          "type": "bool"
        }
      ],
      "name": "ApprovalForAll",
      "type": "event"
    },
    {
      "anonymous": false,
      "inputs": [
        {
          "indexed": true,
          "internalType": "address",
          "name": "from",
          "type": "address"
        },
        {
          "indexed": true,
          "internalType": "address",
          "name": "to",
          "type": "address"
        },
        {
          "indexed": true,
          "internalType": "uint256",
          "name": "tokenId",
          "type": "uint256"
        }
      ],
      "name": "Transfer",
      "type": "event"
    },
    {
      "inputs": [
        {
          "internalType": "address",
          "name": "to",
          "type": "address"
        },
        {
          "internalType": "uint256",
          "name": "tokenId",
          "type": "uint256"
        }
      ],
      "name": "approve",
      "outputs": [],
      "stateMutability": "nonpayable",
      "type": "function"
    },
    {
      "inputs": [
        {
          "internalType": "address",
          "name": "owner",
          "type": "address"
        }
      ],
      "name": "balanceOf",
      "outputs": [
        {
          "internalType": "uint256",
          "name": "",
          "type": "uint256"
        }
      ],
      "stateMutability": "view",
      "type": "function",
      "constant": true
    },
    {
      "inputs": [
        {
          "internalType": "uint256",
          "name": "tokenId",
          "type": "uint256"
        }
      ],
      "name": "getApproved",
      "outputs": [
        {
          "internalType": "address",
          "name": "",
          "type": "address"
        }
      ],
      "stateMutability": "view",
      "type": "function",
      "constant": true
    },
    {
      "inputs": [
        {
          "internalType": "address",
          "name": "owner",
          "type": "address"
        },
        {
          "internalType": "address",
          "name": "operator",
          "type": "address"
        }
      ],
      "name": "isApprovedForAll",
      "outputs": [
        {
          "internalType": "bool",
          "name": "",
          "type": "bool"
        }
      ],
      "stateMutability": "view",
      "type": "function",
      "constant": true
    },
    {
      "inputs": [],
      "name": "name",
      "outputs": [
        {
          "internalType": "string",
          "name": "",
          "type": "string"
        }
      ],
      "stateMutability": "view",
      "type": "function",
      "constant": true
    },
    {
      "inputs": [
        {
          "internalType": "uint256",
          "name": "tokenId",
          "type": "uint256"
        }
      ],
      "name": "ownerOf",
      "outputs": [
        {
          "internalType": "address",
          "name": "",
          "type": "address"
        }
      ],
      "stateMutability": "view",
      "type": "function",
      "constant": true
    },
    {
      "inputs": [
        {
          "internalType": "address",
          "name": "from",
          "type": "address"
        },
        {
          "internalType": "address",
          "name": "to",
          "type": "address"
        },
        {
          "internalType": "uint256",
          "name": "tokenId",
          "type": "uint256"
        }
      ],
      "name": "safeTransferFrom",
      "outputs": [],
      "stateMutability": "nonpayable",
      "type": "function"
    },
    {
      "inputs": [
        {
          "internalType": "address",
          "name": "from",
          "type": "address"
        },
        {
          "internalType": "address",
          "name": "to",
          "type": "address"
        },
        {
          "internalType": "uint256",
          "name": "tokenId",
          "type": "uint256"
        },
        {
          "internalType": "bytes",
          "name": "_data",
          "type": "bytes"
        }
      ],
      "name": "safeTransferFrom",
      "outputs": [],
      "stateMutability": "nonpayable",
      "type": "function"
    },
    {
      "inputs": [
        {
          "internalType": "address",
          "name": "operator",
          "type": "address"
        },
        {
          "internalType": "bool",
          "name": "approved",
          "type": "bool"
        }
      ],
      "name": "setApprovalForAll",
      "outputs": [],
      "stateMutability": "nonpayable",
      "type": "function"
    },
    {
      "inputs": [
        {
          "internalType": "uint256",
          "name": "",
          "type": "uint256"
        }
      ],
      "name": "starToIdInfo",
      "outputs": [
        {
          "internalType": "string",
          "name": "name",
          "type": "string"
        }
      ],
      "stateMutability": "view",
      "type": "function",
      "constant": true
    },
    {
      "inputs": [
        {
          "internalType": "uint256",
          "name": "",
          "type": "uint256"
        }
      ],
      "name": "starsForSale",
      "outputs": [
        {
          "internalType": "uint256",
          "name": "",
          "type": "uint256"
        }
      ],
      "stateMutability": "view",
      "type": "function",
      "constant": true
    },
    {
      "inputs": [
        {
          "internalType": "bytes4",
          "name": "interfaceId",
          "type": "bytes4"
        }
      ],
      "name": "supportsInterface",
      "outputs": [
        {
          "internalType": "bool",
          "name": "",
          "type": "bool"
        }
      ],
      "stateMutability": "view",
      "type": "function",
      "constant": true
    },
    {
      "inputs": [],
      "name": "symbol",
      "outputs": [
        {
          "internalType": "string",
          "name": "",
          "type": "string"
        }
      ],
      "stateMutability": "view",
      "type": "function",
      "constant": true
    },
    {
      "inputs": [
        {
          "internalType": "uint256",
          "name": "tokenId",
          "type": "uint256"
        }
      ],
      "name": "tokenURI",
      "outputs": [
        {
          "internalType": "string",
          "name": "",
          "type": "string"
        }
      ],
      "stateMutability": "view",
      "type": "function",
      "constant": true
    },
    {
      "inputs": [
        {
          "internalType": "address",
          "name": "from",
          "type": "address"
        },
        {
          "internalType": "address",
          "name": "to",
          "type": "address"
        },
        {
          "internalType": "uint256",
          "name": "tokenId",
          "type": "uint256"
        }
      ],
      "name": "transferFrom",
      "outputs": [],
      "stateMutability": "nonpayable",
      "type": "function"
    },
    {
      "inputs": [
        {
          "internalType": "string",
          "name": "_name",
          "type": "string"
        }
      ],
      "name": "createStar",
      "outputs": [
        {
          "internalType": "uint256",
          "name": "",
          "type": "uint256"
        }
      ],
      "stateMutability": "nonpayable",
      "type": "function"
    },
    {
      "inputs": [
        {
          "internalType": "uint256",
          "name": "_id",
          "type": "uint256"
        },
        {
          "internalType": "uint256",
          "name": "_price",
          "type": "uint256"
        }
      ],
      "name": "setStarForSale",
      "outputs": [],
      "stateMutability": "nonpayable",
      "type": "function"
    },
    {
      "inputs": [
        {
          "internalType": "uint256",
          "name": "_id",
          "type": "uint256"
        }
      ],
      "name": "buyStar",
      "outputs": [],
      "stateMutability": "payable",
      "type": "function",
      "payable": true
    },
    {
      "inputs": [
        {
          "internalType": "uint256",
          "name": "_tokenId",
          "type": "uint256"
        }
      ],
      "name": "lookUptokenIdToStarInfo",
      "outputs": [
        {
          "internalType": "string",
          "name": "",
          "type": "string"
        }
      ],
      "stateMutability": "view",
      "type": "function",
      "constant": true
    },
    {
      "inputs": [
        {
          "internalType": "uint256",
          "name": "_tokenId1",
          "type": "uint256"
        },
        {
          "internalType": "uint256",
          "name": "_tokenId2",
          "type": "uint256"
        }
      ],
      "name": "exchangeStars",
      "outputs": [],
      "stateMutability": "nonpayable",
      "type": "function"
    },
    {
      "inputs": [
        {
          "internalType": "address",
          "name": "_to1",
          "type": "address"
        },
        {
          "internalType": "uint256",
          "name": "_tokenId",
          "type": "uint256"
        }
      ],
      "name": "transferStar",
      "outputs": [],
      "stateMutability": "nonpayable",
      "type": "function"
    },
    {
      "inputs": [
        {
          "internalType": "uint256",
          "name": "_id",
          "type": "uint256"
        }
      ],
      "name": "allowTransfers",
      "outputs": [],
      "stateMutability": "nonpayable",
      "type": "function"
    }
  ],
  "bytecode": "0x60806040523480156200001157600080fd5b506040518060400160405280600481526020017f53746172000000000000000000000000000000000000000000000000000000008152506040518060400160405280600181526020017f5300000000000000000000000000000000000000000000000000000000000000815250816000908051906020019062000096929190620000b8565b508060019080519060200190620000af929190620000b8565b505050620001cd565b828054620000c69062000197565b90600052602060002090601f016020900481019282620000ea576000855562000136565b82601f106200010557805160ff191683800117855562000136565b8280016001018555821562000136579182015b828111156200013557825182559160200191906001019062000118565b5b50905062000145919062000149565b5090565b5b80821115620001645760008160009055506001016200014a565b5090565b7f4e487b7100000000000000000000000000000000000000000000000000000000600052602260045260246000fd5b60006002820490506001821680620001b057607f821691505b60208210811415620001c757620001c662000168565b5b50919050565b61352980620001dd6000396000f3fe6080604052600436106101355760003560e01c806370a08231116100ab578063c87b56dd1161006f578063c87b56dd14610425578063d7830ccb14610462578063e7152a5c1461049f578063e985e9c5146104c8578063ec39c4ea14610505578063ec69d9ed1461054257610135565b806370a082311461034257806395d89b411461037f578063a22cb465146103aa578063b1b3cda7146103d3578063b88d4fde146103fc57610135565b806315e0afa5116100fd57806315e0afa51461024557806323b872dd1461026e5780632f1c34ef1461029757806342842e0e146102b35780636352211e146102dc5780636d89d3531461031957610135565b806301ffc9a71461013a5780630564b1301461017757806306fdde03146101b4578063081812fc146101df578063095ea7b31461021c575b600080fd5b34801561014657600080fd5b50610161600480360381019061015c919061214f565b61057f565b60405161016e9190612197565b60405180910390f35b34801561018357600080fd5b5061019e600480360381019061019991906121e8565b610661565b6040516101ab9190612224565b60405180910390f35b3480156101c057600080fd5b506101c9610679565b6040516101d691906122d8565b60405180910390f35b3480156101eb57600080fd5b50610206600480360381019061020191906121e8565b61070b565b604051610213919061233b565b60405180910390f35b34801561022857600080fd5b50610243600480360381019061023e9190612382565b610790565b005b34801561025157600080fd5b5061026c600480360381019061026791906123c2565b6108a8565b005b34801561027a57600080fd5b5061029560048036038101906102909190612402565b610a5a565b005b6102b160048036038101906102ac91906121e8565b610aba565b005b3480156102bf57600080fd5b506102da60048036038101906102d59190612402565b610ca7565b005b3480156102e857600080fd5b5061030360048036038101906102fe91906121e8565b610cc7565b604051610310919061233b565b60405180910390f35b34801561032557600080fd5b50610340600480360381019061033b91906123c2565b610d79565b005b34801561034e57600080fd5b5061036960048036038101906103649190612455565b610e14565b6040516103769190612224565b60405180910390f35b34801561038b57600080fd5b50610394610ecc565b6040516103a191906122d8565b60405180910390f35b3480156103b657600080fd5b506103d160048036038101906103cc91906124ae565b610f5e565b005b3480156103df57600080fd5b506103fa60048036038101906103f591906121e8565b610f74565b005b34801561040857600080fd5b50610423600480360381019061041e9190612623565b610fc1565b005b34801561043157600080fd5b5061044c600480360381019061044791906121e8565b611023565b60405161045991906122d8565b60405180910390f35b34801561046e57600080fd5b50610489600480360381019061048491906121e8565b6110ca565b60405161049691906122d8565b60405180910390f35b3480156104ab57600080fd5b506104c660048036038101906104c19190612382565b61118d565b005b3480156104d457600080fd5b506104ef60048036038101906104ea91906126a6565b611240565b6040516104fc9190612197565b60405180910390f35b34801561051157600080fd5b5061052c60048036038101906105279190612787565b6112d4565b6040516105399190612224565b60405180910390f35b34801561054e57600080fd5b50610569600480360381019061056491906121e8565b611351565b60405161057691906122d8565b60405180910390f35b60007f80ac58cd000000000000000000000000000000000000000000000000000000007bffffffffffffffffffffffffffffffffffffffffffffffffffffffff1916827bffffffffffffffffffffffffffffffffffffffffffffffffffffffff1916148061064a57507f5b5e139f000000000000000000000000000000000000000000000000000000007bffffffffffffffffffffffffffffffffffffffffffffffffffffffff1916827bffffffffffffffffffffffffffffffffffffffffffffffffffffffff1916145b8061065a5750610659826113f7565b5b9050919050565b60076020528060005260406000206000915090505481565b606060008054610688906127ff565b80601f01602080910402602001604051908101604052809291908181526020018280546106b4906127ff565b80156107015780601f106106d657610100808354040283529160200191610701565b820191906000526020600020905b8154815290600101906020018083116106e457829003601f168201915b5050505050905090565b600061071682611461565b610755576040517f08c379a000000000000000000000000000000000000000000000000000000000815260040161074c906128a3565b60405180910390fd5b6004600083815260200190815260200160002060009054906101000a900473ffffffffffffffffffffffffffffffffffffffff169050919050565b600061079b82610cc7565b90508073ffffffffffffffffffffffffffffffffffffffff168373ffffffffffffffffffffffffffffffffffffffff16141561080c576040517f08c379a000000000000000000000000000000000000000000000000000000000815260040161080390612935565b60405180910390fd5b8073ffffffffffffffffffffffffffffffffffffffff1661082b6114cd565b73ffffffffffffffffffffffffffffffffffffffff16148061085a5750610859816108546114cd565b611240565b5b610899576040517f08c379a0000000000000000000000000000000000000000000000000000000008152600401610890906129c7565b60405180910390fd5b6108a383836114d5565b505050565b6108b182610cc7565b73ffffffffffffffffffffffffffffffffffffffff163373ffffffffffffffffffffffffffffffffffffffff16148061091d57506108ee81610cc7565b73ffffffffffffffffffffffffffffffffffffffff163373ffffffffffffffffffffffffffffffffffffffff16145b61095c576040517f08c379a000000000000000000000000000000000000000000000000000000000815260040161095390612a59565b60405180910390fd5b600061096783610cc7565b9050600061097483610cc7565b90503073ffffffffffffffffffffffffffffffffffffffff166342842e0e8383876040518463ffffffff1660e01b81526004016109b393929190612a79565b600060405180830381600087803b1580156109cd57600080fd5b505af11580156109e1573d6000803e3d6000fd5b505050503073ffffffffffffffffffffffffffffffffffffffff166342842e0e8284866040518463ffffffff1660e01b8152600401610a2293929190612a79565b600060405180830381600087803b158015610a3c57600080fd5b505af1158015610a50573d6000803e3d6000fd5b5050505050505050565b610a6b610a656114cd565b8261158e565b610aaa576040517f08c379a0000000000000000000000000000000000000000000000000000000008152600401610aa190612b22565b60405180910390fd5b610ab583838361166c565b505050565b6000600760008381526020019081526020016000205411610b10576040517f08c379a0000000000000000000000000000000000000000000000000000000008152600401610b0790612b8e565b60405180910390fd5b6000600760008381526020019081526020016000205490506000610b3383610cc7565b905081341015610b78576040517f08c379a0000000000000000000000000000000000000000000000000000000008152600401610b6f90612c20565b60405180910390fd5b3073ffffffffffffffffffffffffffffffffffffffff166342842e0e8233866040518463ffffffff1660e01b8152600401610bb593929190612a79565b600060405180830381600087803b158015610bcf57600080fd5b505af1158015610be3573d6000803e3d6000fd5b505050508073ffffffffffffffffffffffffffffffffffffffff166108fc839081150290604051600060405180830381858888f19350505050158015610c2d573d6000803e3d6000fd5b506000600760008581526020019081526020016000208190555081341115610ca2573373ffffffffffffffffffffffffffffffffffffffff166108fc8334610c759190612c6f565b9081150290604051600060405180830381858888f19350505050158015610ca0573d6000803e3d6000fd5b505b505050565b610cc283838360405180602001604052806000815250610fc1565b505050565b6000806002600084815260200190815260200160002060009054906101000a900473ffffffffffffffffffffffffffffffffffffffff169050600073ffffffffffffffffffffffffffffffffffffffff168173ffffffffffffffffffffffffffffffffffffffff161415610d70576040517f08c379a0000000000000000000000000000000000000000000000000000000008152600401610d6790612d15565b60405180910390fd5b80915050919050565b3373ffffffffffffffffffffffffffffffffffffffff16610d9983610cc7565b73ffffffffffffffffffffffffffffffffffffffff1614610def576040517f08c379a0000000000000000000000000000000000000000000000000000000008152600401610de690612d81565b60405180910390fd5b610df882610f74565b8060076000848152602001908152602001600020819055505050565b60008073ffffffffffffffffffffffffffffffffffffffff168273ffffffffffffffffffffffffffffffffffffffff161415610e85576040517f08c379a0000000000000000000000000000000000000000000000000000000008152600401610e7c90612e13565b60405180910390fd5b600360008373ffffffffffffffffffffffffffffffffffffffff1673ffffffffffffffffffffffffffffffffffffffff168152602001908152602001600020549050919050565b606060018054610edb906127ff565b80601f0160208091040260200160405190810160405280929190818152602001828054610f07906127ff565b8015610f545780601f10610f2957610100808354040283529160200191610f54565b820191906000526020600020905b815481529060010190602001808311610f3757829003601f168201915b5050505050905090565b610f70610f696114cd565b83836118d3565b5050565b610f7d81610cc7565b73ffffffffffffffffffffffffffffffffffffffff163373ffffffffffffffffffffffffffffffffffffffff1614610fb457600080fd5b610fbe3082610790565b50565b610fd2610fcc6114cd565b8361158e565b611011576040517f08c379a000000000000000000000000000000000000000000000000000000000815260040161100890612b22565b60405180910390fd5b61101d84848484611a40565b50505050565b606061102e82611461565b61106d576040517f08c379a000000000000000000000000000000000000000000000000000000000815260040161106490612ea5565b60405180910390fd5b6000611077611a9c565b9050600081511161109757604051806020016040528060008152506110c2565b806110a184611ab3565b6040516020016110b2929190612f01565b6040516020818303038152906040525b915050919050565b60606000600660008481526020019081526020016000206040518060200160405290816000820180546110fc906127ff565b80601f0160208091040260200160405190810160405280929190818152602001828054611128906127ff565b80156111755780601f1061114a57610100808354040283529160200191611175565b820191906000526020600020905b81548152906001019060200180831161115857829003601f168201915b50505050508152505090508060000151915050919050565b61119681610cc7565b73ffffffffffffffffffffffffffffffffffffffff163373ffffffffffffffffffffffffffffffffffffffff16146111cd57600080fd5b3073ffffffffffffffffffffffffffffffffffffffff166342842e0e3384846040518463ffffffff1660e01b815260040161120a93929190612a79565b600060405180830381600087803b15801561122457600080fd5b505af1158015611238573d6000803e3d6000fd5b505050505050565b6000600560008473ffffffffffffffffffffffffffffffffffffffff1673ffffffffffffffffffffffffffffffffffffffff16815260200190815260200160002060008373ffffffffffffffffffffffffffffffffffffffff1673ffffffffffffffffffffffffffffffffffffffff16815260200190815260200160002060009054906101000a900460ff16905092915050565b60008060405180602001604052808481525090506112f26008611c14565b60006112fe6008611c2a565b905081600660008381526020019081526020016000206000820151816000019080519060200190611330929190612040565b5090505061133e3382611c38565b61134781610f74565b8092505050919050565b6006602052806000526040600020600091509050806000018054611374906127ff565b80601f01602080910402602001604051908101604052809291908181526020018280546113a0906127ff565b80156113ed5780601f106113c2576101008083540402835291602001916113ed565b820191906000526020600020905b8154815290600101906020018083116113d057829003601f168201915b5050505050905081565b60007f01ffc9a7000000000000000000000000000000000000000000000000000000007bffffffffffffffffffffffffffffffffffffffffffffffffffffffff1916827bffffffffffffffffffffffffffffffffffffffffffffffffffffffff1916149050919050565b60008073ffffffffffffffffffffffffffffffffffffffff166002600084815260200190815260200160002060009054906101000a900473ffffffffffffffffffffffffffffffffffffffff1673ffffffffffffffffffffffffffffffffffffffff1614159050919050565b600033905090565b816004600083815260200190815260200160002060006101000a81548173ffffffffffffffffffffffffffffffffffffffff021916908373ffffffffffffffffffffffffffffffffffffffff160217905550808273ffffffffffffffffffffffffffffffffffffffff1661154883610cc7565b73ffffffffffffffffffffffffffffffffffffffff167f8c5be1e5ebec7d5bd14f71427d1e84f3dd0314c0f7b2291e5b200ac8c7c3b92560405160405180910390a45050565b600061159982611461565b6115d8576040517f08c379a00000000000000000000000000000000000000000000000000000000081526004016115cf90612f97565b60405180910390fd5b60006115e383610cc7565b90508073ffffffffffffffffffffffffffffffffffffffff168473ffffffffffffffffffffffffffffffffffffffff16148061165257508373ffffffffffffffffffffffffffffffffffffffff1661163a8461070b565b73ffffffffffffffffffffffffffffffffffffffff16145b8061166357506116628185611240565b5b91505092915050565b8273ffffffffffffffffffffffffffffffffffffffff1661168c82610cc7565b73ffffffffffffffffffffffffffffffffffffffff16146116e2576040517f08c379a00000000000000000000000000000000000000000000000000000000081526004016116d990613029565b60405180910390fd5b600073ffffffffffffffffffffffffffffffffffffffff168273ffffffffffffffffffffffffffffffffffffffff161415611752576040517f08c379a0000000000000000000000000000000000000000000000000000000008152600401611749906130bb565b60405180910390fd5b61175d838383611c56565b6117686000826114d5565b6001600360008573ffffffffffffffffffffffffffffffffffffffff1673ffffffffffffffffffffffffffffffffffffffff16815260200190815260200160002060008282546117b89190612c6f565b925050819055506001600360008473ffffffffffffffffffffffffffffffffffffffff1673ffffffffffffffffffffffffffffffffffffffff168152602001908152602001600020600082825461180f91906130db565b92505081905550816002600083815260200190815260200160002060006101000a81548173ffffffffffffffffffffffffffffffffffffffff021916908373ffffffffffffffffffffffffffffffffffffffff160217905550808273ffffffffffffffffffffffffffffffffffffffff168473ffffffffffffffffffffffffffffffffffffffff167fddf252ad1be2c89b69c2b068fc378daa952ba7f163c4a11628f55a4df523b3ef60405160405180910390a46118ce838383611c5b565b505050565b8173ffffffffffffffffffffffffffffffffffffffff168373ffffffffffffffffffffffffffffffffffffffff161415611942576040517f08c379a00000000000000000000000000000000000000000000000000000000081526004016119399061317d565b60405180910390fd5b80600560008573ffffffffffffffffffffffffffffffffffffffff1673ffffffffffffffffffffffffffffffffffffffff16815260200190815260200160002060008473ffffffffffffffffffffffffffffffffffffffff1673ffffffffffffffffffffffffffffffffffffffff16815260200190815260200160002060006101000a81548160ff0219169083151502179055508173ffffffffffffffffffffffffffffffffffffffff168373ffffffffffffffffffffffffffffffffffffffff167f17307eab39ab6107e8899845ad3d59bd9653f200f220920489ca2b5937696c3183604051611a339190612197565b60405180910390a3505050565b611a4b84848461166c565b611a5784848484611c60565b611a96576040517f08c379a0000000000000000000000000000000000000000000000000000000008152600401611a8d9061320f565b60405180910390fd5b50505050565b606060405180602001604052806000815250905090565b60606000821415611afb576040518060400160405280600181526020017f30000000000000000000000000000000000000000000000000000000000000008152509050611c0f565b600082905060005b60008214611b2d578080611b169061322f565b915050600a82611b2691906132a7565b9150611b03565b60008167ffffffffffffffff811115611b4957611b486124f8565b5b6040519080825280601f01601f191660200182016040528015611b7b5781602001600182028036833780820191505090505b5090505b60008514611c0857600182611b949190612c6f565b9150600a85611ba391906132d8565b6030611baf91906130db565b60f81b818381518110611bc557611bc4613309565b5b60200101907effffffffffffffffffffffffffffffffffffffffffffffffffffffffffffff1916908160001a905350600a85611c0191906132a7565b9450611b7f565b8093505050505b919050565b6001816000016000828254019250508190555050565b600081600001549050919050565b611c52828260405180602001604052806000815250611de8565b5050565b505050565b505050565b6000611c818473ffffffffffffffffffffffffffffffffffffffff16611e43565b15611ddb578373ffffffffffffffffffffffffffffffffffffffff1663150b7a02611caa6114cd565b8786866040518563ffffffff1660e01b8152600401611ccc949392919061338d565b6020604051808303816000875af1925050508015611d0857506040513d601f19601f82011682018060405250810190611d0591906133ee565b60015b611d8b573d8060008114611d38576040519150601f19603f3d011682016040523d82523d6000602084013e611d3d565b606091505b50600081511415611d83576040517f08c379a0000000000000000000000000000000000000000000000000000000008152600401611d7a9061320f565b60405180910390fd5b805181602001fd5b63150b7a0260e01b7bffffffffffffffffffffffffffffffffffffffffffffffffffffffff1916817bffffffffffffffffffffffffffffffffffffffffffffffffffffffff191614915050611de0565b600190505b949350505050565b611df28383611e66565b611dff6000848484611c60565b611e3e576040517f08c379a0000000000000000000000000000000000000000000000000000000008152600401611e359061320f565b60405180910390fd5b505050565b6000808273ffffffffffffffffffffffffffffffffffffffff163b119050919050565b600073ffffffffffffffffffffffffffffffffffffffff168273ffffffffffffffffffffffffffffffffffffffff161415611ed6576040517f08c379a0000000000000000000000000000000000000000000000000000000008152600401611ecd90613467565b60405180910390fd5b611edf81611461565b15611f1f576040517f08c379a0000000000000000000000000000000000000000000000000000000008152600401611f16906134d3565b60405180910390fd5b611f2b60008383611c56565b6001600360008473ffffffffffffffffffffffffffffffffffffffff1673ffffffffffffffffffffffffffffffffffffffff1681526020019081526020016000206000828254611f7b91906130db565b92505081905550816002600083815260200190815260200160002060006101000a81548173ffffffffffffffffffffffffffffffffffffffff021916908373ffffffffffffffffffffffffffffffffffffffff160217905550808273ffffffffffffffffffffffffffffffffffffffff16600073ffffffffffffffffffffffffffffffffffffffff167fddf252ad1be2c89b69c2b068fc378daa952ba7f163c4a11628f55a4df523b3ef60405160405180910390a461203c60008383611c5b565b5050565b82805461204c906127ff565b90600052602060002090601f01602090048101928261206e57600085556120b5565b82601f1061208757805160ff19168380011785556120b5565b828001600101855582156120b5579182015b828111156120b4578251825591602001919060010190612099565b5b5090506120c291906120c6565b5090565b5b808211156120df5760008160009055506001016120c7565b5090565b6000604051905090565b600080fd5b600080fd5b60007fffffffff0000000000000000000000000000000000000000000000000000000082169050919050565b61212c816120f7565b811461213757600080fd5b50565b60008135905061214981612123565b92915050565b600060208284031215612165576121646120ed565b5b60006121738482850161213a565b91505092915050565b60008115159050919050565b6121918161217c565b82525050565b60006020820190506121ac6000830184612188565b92915050565b6000819050919050565b6121c5816121b2565b81146121d057600080fd5b50565b6000813590506121e2816121bc565b92915050565b6000602082840312156121fe576121fd6120ed565b5b600061220c848285016121d3565b91505092915050565b61221e816121b2565b82525050565b60006020820190506122396000830184612215565b92915050565b600081519050919050565b600082825260208201905092915050565b60005b8381101561227957808201518184015260208101905061225e565b83811115612288576000848401525b50505050565b6000601f19601f8301169050919050565b60006122aa8261223f565b6122b4818561224a565b93506122c481856020860161225b565b6122cd8161228e565b840191505092915050565b600060208201905081810360008301526122f2818461229f565b905092915050565b600073ffffffffffffffffffffffffffffffffffffffff82169050919050565b6000612325826122fa565b9050919050565b6123358161231a565b82525050565b6000602082019050612350600083018461232c565b92915050565b61235f8161231a565b811461236a57600080fd5b50565b60008135905061237c81612356565b92915050565b60008060408385031215612399576123986120ed565b5b60006123a78582860161236d565b92505060206123b8858286016121d3565b9150509250929050565b600080604083850312156123d9576123d86120ed565b5b60006123e7858286016121d3565b92505060206123f8858286016121d3565b9150509250929050565b60008060006060848603121561241b5761241a6120ed565b5b60006124298682870161236d565b935050602061243a8682870161236d565b925050604061244b868287016121d3565b9150509250925092565b60006020828403121561246b5761246a6120ed565b5b60006124798482850161236d565b91505092915050565b61248b8161217c565b811461249657600080fd5b50565b6000813590506124a881612482565b92915050565b600080604083850312156124c5576124c46120ed565b5b60006124d38582860161236d565b92505060206124e485828601612499565b9150509250929050565b600080fd5b600080fd5b7f4e487b7100000000000000000000000000000000000000000000000000000000600052604160045260246000fd5b6125308261228e565b810181811067ffffffffffffffff8211171561254f5761254e6124f8565b5b80604052505050565b60006125626120e3565b905061256e8282612527565b919050565b600067ffffffffffffffff82111561258e5761258d6124f8565b5b6125978261228e565b9050602081019050919050565b82818337600083830152505050565b60006125c66125c184612573565b612558565b9050828152602081018484840111156125e2576125e16124f3565b5b6125ed8482856125a4565b509392505050565b600082601f83011261260a576126096124ee565b5b813561261a8482602086016125b3565b91505092915050565b6000806000806080858703121561263d5761263c6120ed565b5b600061264b8782880161236d565b945050602061265c8782880161236d565b935050604061266d878288016121d3565b925050606085013567ffffffffffffffff81111561268e5761268d6120f2565b5b61269a878288016125f5565b91505092959194509250565b600080604083850312156126bd576126bc6120ed565b5b60006126cb8582860161236d565b92505060206126dc8582860161236d565b9150509250929050565b600067ffffffffffffffff821115612701576127006124f8565b5b61270a8261228e565b9050602081019050919050565b600061272a612725846126e6565b612558565b905082815260208101848484011115612746576127456124f3565b5b6127518482856125a4565b509392505050565b600082601f83011261276e5761276d6124ee565b5b813561277e848260208601612717565b91505092915050565b60006020828403121561279d5761279c6120ed565b5b600082013567ffffffffffffffff8111156127bb576127ba6120f2565b5b6127c784828501612759565b91505092915050565b7f4e487b7100000000000000000000000000000000000000000000000000000000600052602260045260246000fd5b6000600282049050600182168061281757607f821691505b6020821081141561282b5761282a6127d0565b5b50919050565b7f4552433732313a20617070726f76656420717565727920666f72206e6f6e657860008201527f697374656e7420746f6b656e0000000000000000000000000000000000000000602082015250565b600061288d602c8361224a565b915061289882612831565b604082019050919050565b600060208201905081810360008301526128bc81612880565b9050919050565b7f4552433732313a20617070726f76616c20746f2063757272656e74206f776e6560008201527f7200000000000000000000000000000000000000000000000000000000000000602082015250565b600061291f60218361224a565b915061292a826128c3565b604082019050919050565b6000602082019050818103600083015261294e81612912565b9050919050565b7f4552433732313a20617070726f76652063616c6c6572206973206e6f74206f7760008201527f6e6572206e6f7220617070726f76656420666f7220616c6c0000000000000000602082015250565b60006129b160388361224a565b91506129bc82612955565b604082019050919050565b600060208201905081810360008301526129e0816129a4565b9050919050565b7f596f75206d757374206f776e20656974686572206f662074686520737461727360008201527f2e00000000000000000000000000000000000000000000000000000000000000602082015250565b6000612a4360218361224a565b9150612a4e826129e7565b604082019050919050565b60006020820190508181036000830152612a7281612a36565b9050919050565b6000606082019050612a8e600083018661232c565b612a9b602083018561232c565b612aa86040830184612215565b949350505050565b7f4552433732313a207472616e736665722063616c6c6572206973206e6f74206f60008201527f776e6572206e6f7220617070726f766564000000000000000000000000000000602082015250565b6000612b0c60318361224a565b9150612b1782612ab0565b604082019050919050565b60006020820190508181036000830152612b3b81612aff565b9050919050565b7f5468652073746172206d75737420626520666f722073616c652e000000000000600082015250565b6000612b78601a8361224a565b9150612b8382612b42565b602082019050919050565b60006020820190508181036000830152612ba781612b6b565b9050919050565b7f4d696e696d756d2062616c616e6365206e6565647320746f20636f766572207460008201527f686520636f73742e000000000000000000000000000000000000000000000000602082015250565b6000612c0a60288361224a565b9150612c1582612bae565b604082019050919050565b60006020820190508181036000830152612c3981612bfd565b9050919050565b7f4e487b7100000000000000000000000000000000000000000000000000000000600052601160045260246000fd5b6000612c7a826121b2565b9150612c85836121b2565b925082821015612c9857612c97612c40565b5b828203905092915050565b7f4552433732313a206f776e657220717565727920666f72206e6f6e657869737460008201527f656e7420746f6b656e0000000000000000000000000000000000000000000000602082015250565b6000612cff60298361224a565b9150612d0a82612ca3565b604082019050919050565b60006020820190508181036000830152612d2e81612cf2565b9050919050565b7f4d75737420626520746865206f776e6572206f66207468697320737461722e00600082015250565b6000612d6b601f8361224a565b9150612d7682612d35565b602082019050919050565b60006020820190508181036000830152612d9a81612d5e565b9050919050565b7f4552433732313a2062616c616e636520717565727920666f7220746865207a6560008201527f726f206164647265737300000000000000000000000000000000000000000000602082015250565b6000612dfd602a8361224a565b9150612e0882612da1565b604082019050919050565b60006020820190508181036000830152612e2c81612df0565b9050919050565b7f4552433732314d657461646174613a2055524920717565727920666f72206e6f60008201527f6e6578697374656e7420746f6b656e0000000000000000000000000000000000602082015250565b6000612e8f602f8361224a565b9150612e9a82612e33565b604082019050919050565b60006020820190508181036000830152612ebe81612e82565b9050919050565b600081905092915050565b6000612edb8261223f565b612ee58185612ec5565b9350612ef581856020860161225b565b80840191505092915050565b6000612f0d8285612ed0565b9150612f198284612ed0565b91508190509392505050565b7f4552433732313a206f70657261746f7220717565727920666f72206e6f6e657860008201527f697374656e7420746f6b656e0000000000000000000000000000000000000000602082015250565b6000612f81602c8361224a565b9150612f8c82612f25565b604082019050919050565b60006020820190508181036000830152612fb081612f74565b9050919050565b7f4552433732313a207472616e736665722066726f6d20696e636f72726563742060008201527f6f776e6572000000000000000000000000000000000000000000000000000000602082015250565b600061301360258361224a565b915061301e82612fb7565b604082019050919050565b6000602082019050818103600083015261304281613006565b9050919050565b7f4552433732313a207472616e7366657220746f20746865207a65726f2061646460008201527f7265737300000000000000000000000000000000000000000000000000000000602082015250565b60006130a560248361224a565b91506130b082613049565b604082019050919050565b600060208201905081810360008301526130d481613098565b9050919050565b60006130e6826121b2565b91506130f1836121b2565b9250827fffffffffffffffffffffffffffffffffffffffffffffffffffffffffffffffff0382111561312657613125612c40565b5b828201905092915050565b7f4552433732313a20617070726f766520746f2063616c6c657200000000000000600082015250565b600061316760198361224a565b915061317282613131565b602082019050919050565b600060208201905081810360008301526131968161315a565b9050919050565b7f4552433732313a207472616e7366657220746f206e6f6e20455243373231526560008201527f63656976657220696d706c656d656e7465720000000000000000000000000000602082015250565b60006131f960328361224a565b91506132048261319d565b604082019050919050565b60006020820190508181036000830152613228816131ec565b9050919050565b600061323a826121b2565b91507fffffffffffffffffffffffffffffffffffffffffffffffffffffffffffffffff82141561326d5761326c612c40565b5b600182019050919050565b7f4e487b7100000000000000000000000000000000000000000000000000000000600052601260045260246000fd5b60006132b2826121b2565b91506132bd836121b2565b9250826132cd576132cc613278565b5b828204905092915050565b60006132e3826121b2565b91506132ee836121b2565b9250826132fe576132fd613278565b5b828206905092915050565b7f4e487b7100000000000000000000000000000000000000000000000000000000600052603260045260246000fd5b600081519050919050565b600082825260208201905092915050565b600061335f82613338565b6133698185613343565b935061337981856020860161225b565b6133828161228e565b840191505092915050565b60006080820190506133a2600083018761232c565b6133af602083018661232c565b6133bc6040830185612215565b81810360608301526133ce8184613354565b905095945050505050565b6000815190506133e881612123565b92915050565b600060208284031215613404576134036120ed565b5b6000613412848285016133d9565b91505092915050565b7f4552433732313a206d696e7420746f20746865207a65726f2061646472657373600082015250565b600061345160208361224a565b915061345c8261341b565b602082019050919050565b6000602082019050818103600083015261348081613444565b9050919050565b7f4552433732313a20746f6b656e20616c7265616479206d696e74656400000000600082015250565b60006134bd601c8361224a565b91506134c882613487565b602082019050919050565b600060208201905081810360008301526134ec816134b0565b905091905056fea264697066735822122079f46c5baf29b6c103c6d967ba7c4fc4daa83d5e4beb7e21645acd10e8161e3f64736f6c634300080b0033",
  "immutableReferences": {},
  "source": "// contracts/GameItem.sol\r\n// SPDX-License-Identifier: MIT\r\npragma solidity ^0.8.0;\r\n\r\nimport \"@openzeppelin/contracts/token/ERC721/ERC721.sol\";\r\nimport \"@openzeppelin/contracts/utils/Counters.sol\";\r\n\r\n    struct Star {\r\n        string name;\r\n    }\r\ncontract StarNotary is ERC721 {\r\n\r\n\r\n    mapping(uint256 => Star) public starToIdInfo;\r\n    mapping(uint256 => uint256) public starsForSale;\r\n\r\n    using Counters for Counters.Counter;\r\n    Counters.Counter private _tokenIds;\r\n\r\n    constructor() ERC721(\"Star\", \"S\") {}\r\n\r\n    function createStar(string memory _name) public returns (uint256) {\r\n        Star memory newStar = Star(_name);\r\n        _tokenIds.increment();\r\n        uint256 itemId = _tokenIds.current();\r\n        starToIdInfo[itemId] = newStar;\r\n        _safeMint(msg.sender, itemId);\r\n        allowTransfers(itemId);\r\n        return itemId;\r\n    }\r\n\r\n    function setStarForSale(uint256 _id, uint256 _price) public {\r\n        // Sets star for sale and approval of the contract to handle the token.\r\n        require(ownerOf(_id) == msg.sender, \"Must be the owner of this star.\");\r\n        allowTransfers(_id);\r\n        starsForSale[_id] = _price;\r\n    }\r\n\r\n    function buyStar(uint256 _id) public payable {\r\n        require(starsForSale[_id] > 0, \"The star must be for sale.\");\r\n        uint256 cost = starsForSale[_id];\r\n        address owner = ownerOf(_id);\r\n        require(msg.value >= cost, \"Minimum balance needs to cover the cost.\");\r\n        this.safeTransferFrom(owner, msg.sender, _id);\r\n        payable(owner).transfer(cost);\r\n        starsForSale[_id] = 0;\r\n        if(msg.value > cost) {\r\n            payable(msg.sender).transfer(msg.value - cost);\r\n        }\r\n    }\r\n\r\n    // Implement Task 1 lookUptokenIdToStarInfo\r\n    function lookUptokenIdToStarInfo (uint _tokenId) public view returns (string memory) {\r\n        //1. You should return the Star saved in tokenIdToStarInfo mapping\r\n        Star memory currentStar = starToIdInfo[_tokenId];\r\n        return currentStar.name;\r\n    }\r\n\r\n    // Implement Task 1 Exchange Stars function\r\n    function exchangeStars(uint256 _tokenId1, uint256 _tokenId2) public {\r\n        //1. Passing to star tokenId you will need to check if the owner of _tokenId1 or _tokenId2 is the sender\r\n        //2. You don't have to check for the price of the token (star)\r\n        //3. Get the owner of the two tokens (ownerOf(_tokenId1), ownerOf(_tokenId2)\r\n        //4. Use _transferFrom function to exchange the tokens.\r\n        require((msg.sender == ownerOf(_tokenId1)) || (msg.sender == ownerOf(_tokenId2)),\r\n            \"You must own either of the stars.\");\r\n        address token1owner = ownerOf(_tokenId1);\r\n        address token2owner = ownerOf(_tokenId2);\r\n        this.safeTransferFrom(token1owner, token2owner, _tokenId1);\r\n        this.safeTransferFrom(token2owner, token1owner, _tokenId2);\r\n    }\r\n\r\n    // Implement Task 1 Transfer Stars\r\n    function transferStar(address _to1, uint256 _tokenId) public {\r\n        //1. Check if the sender is the ownerOf(_tokenId)\r\n        //2. Use the transferFrom(from, to, tokenId); function to transfer the Star\r\n        require(msg.sender == ownerOf(_tokenId));\r\n        this.safeTransferFrom(msg.sender, _to1, _tokenId);\r\n    }\r\n\r\n    function allowTransfers(uint256 _id) public {\r\n        // Allows contract to transfer Stars.\r\n        // Must be re-approved by the owners after transfer.\r\n        require(msg.sender == ownerOf(_id));\r\n        approve(address(this), _id);\r\n    }\r\n}",
  "sourcePath": "C:\\Users\\dubki\\WebstormProjects\\starDapp\\contracts\\StarNotary.sol",
  "compiler": {
    "name": "solc",
    "version": "0.8.11+commit.d7f03943.Emscripten.clang"
  },
  "schemaVersion": "3.4.4",
  "updatedAt": "2022-04-23T07:21:47.424Z",
  "networkType": "ethereum",
  "devdoc": {
    "kind": "dev",
    "methods": {
      "approve(address,uint256)": {
        "details": "See {IERC721-approve}."
      },
      "balanceOf(address)": {
        "details": "See {IERC721-balanceOf}."
      },
      "getApproved(uint256)": {
        "details": "See {IERC721-getApproved}."
      },
      "isApprovedForAll(address,address)": {
        "details": "See {IERC721-isApprovedForAll}."
      },
      "name()": {
        "details": "See {IERC721Metadata-name}."
      },
      "ownerOf(uint256)": {
        "details": "See {IERC721-ownerOf}."
      },
      "safeTransferFrom(address,address,uint256)": {
        "details": "See {IERC721-safeTransferFrom}."
      },
      "safeTransferFrom(address,address,uint256,bytes)": {
        "details": "See {IERC721-safeTransferFrom}."
      },
      "setApprovalForAll(address,bool)": {
        "details": "See {IERC721-setApprovalForAll}."
      },
      "supportsInterface(bytes4)": {
        "details": "See {IERC165-supportsInterface}."
      },
      "symbol()": {
        "details": "See {IERC721Metadata-symbol}."
      },
      "tokenURI(uint256)": {
        "details": "See {IERC721Metadata-tokenURI}."
      },
      "transferFrom(address,address,uint256)": {
        "details": "See {IERC721-transferFrom}."
      }
    },
    "version": 1
  },
  "userdoc": {
    "kind": "user",
    "methods": {},
    "version": 1
  }
}